:100000004BC0000066C0000064C0000062C0000079
:1000100060C000005EC000005CC000005AC000006C
:1000200058C0000056C0000054C0000052C000007C
:1000300050C000004EC000004CC000004AC000008C
:1000400048C0000046C0000044C0000042C000009C
:1000500040C000003EC000003CC000003AC00000AC
:1000600038C0000036C0000034C0000032C00000BC
:1000700030C000002EC000002CC000002AC00000CC
:1000800028C0000026C0000024C0000022C00000DC
:1000900020C000001EC0000011241FBECFEFD0E220
:1000A000DEBFCDBF11E0A0E0B1E0ECE4F4E000E0A1
:1000B0000BBF02C007900D92AE3EB107D9F711E019
:1000C000AEEEB1E001C01D92AE3EB107E1F771D0D6
:1000D000BBC196CFFB019F01E8944230BCF0453292
:1000E000ACF44A3029F497FB1EF4909581959F4F0C
:1000F000642F772795D1805D8A330CF0895D8193D9
:10010000CB010097A9F716F45DE251931082C90163
:1001100000C0DC01FC01672F71917723E1F7329772
:1001200004C07C916D9370836291AE17BF07C8F3D2
:100130000895E1E6F0E080E88083108283E390E0B8
:10014000C0D08CE0C9D081E191E0D8D08FE291E0BD
:10015000D5D085E060E048D18BE691E0CFD01CD1CE
:100160008EE791E0CBD080E42FD181EA91E0C6D038
:1001700011B887EE84B98FEF87B987E48DB910BACB
:1001800012B881E085B981E888B91EB811BA80E457
:10019000809380008BE08093810088E190E09093D1
:1001A00089008093880086EB91E0A8D081E58CBD22
:1001B00008958F929F92AF92BF92CF92DF92EF926B
:1001C000FF920F931F93DF93CF93CDB7DEB72A979C
:1001D0000FB6F894DEBF0FBECDBFABDF20D182E0FB
:1001E00084BD85E085BD8FEF87BD00E06E0108947A
:1001F000C11CD11C88EC882E912C013061F001309B
:10020000E0F785EC91E07AD06ED0882321F06FD0B2
:10021000833709F454C08DEC91E070D064D088230A
:1002200029F065D0833711F400E0EBCFA99BE5CF2F
:10023000A99A16BC84ED91E061D085E0E3D0082F47
:1002400010E086E0DFD0E82EFF2487E0DBD0A82E88
:10025000BB248CED91E052D0C801B6014AE050E0D9
:1002600039DF82E09DE0F4013197F1F70197D9F78A
:10027000C60144D085EE91E041D0C701B6014AE005
:1002800050E028DF82E09DE0F4013197F1F701971B
:10029000D9F7C60133D085EE91E030D0C501B60163
:1002A0004AE050E017DF82E09DE0F4013197F1F77A
:1002B0000197D9F7C60122D088EE91E01FD001E066
:1002C000AACF9093CD008093CC0088E18093C900A1
:1002D00086E08093CA0008959091C80095FFFCCFF6
:1002E0008093CE0008958091C80080780895809111
:1002F000C80087FFFCCF8091CE000895EF92FF9257
:10030000CF93DF93E82EE7017E01F92EE70101C0CC
:10031000E3DF89918823E1F7DF91CF91FF90EF90A0
:100320000895ECE7F0E09081907E908390818F714A
:10033000892B80830895813021F480917C00806234
:1003400003C080917C008F7D80937C000895EAE754
:10035000F0E09081987F908390818770892B8083D3
:100360000895882399F080917B008B7F80937B0098
:1003700080917B008D7F80937B0080917B008E7FBE
:1003800080937B0080917A00806203C080917A0024
:100390008F7D80937A000895EAE7F0E0808180689D
:1003A00080830895EAE7F0E0808180648083089587
:1003B000EAE7F0E0808180618083089590917A007F
:1003C00081E094FF80E0089590917C009F7390936A
:1003D0007C0090917C00807C892B80937C00E2DF04
:1003E000EDDF8823E9F3E4CFDF93CF930F92CDB70E
:1003F000DEB76983ACDF6981862FB3DF0F90CF91C1
:10040000DF9108958EDF80E096DFCCDFD7DF882391
:10041000E9F3CEDF809178009091790008950895F6
:10042000AA1BBB1B51E107C0AA1FBB1FA617B7071A
:1004300010F0A61BB70B881F991F5A95A9F7809536
:0C0440009095BC01CD010895F894FFCF09
:10044C00303132333435363738396162636465663E
:10045C000057756E646572426F61726420696E69D3
:10046C007469616C697A696E672E2E2E0D0A00090B
:10047C0053657474696E67204144432070726573D0
:10048C0063616C657220616E642064697361626C77
:10049C00696E6720667265652072756E6E696E672F
:1004AC00206D6F64652E2E2E0D0A0009456E61625B
:1004BC006C696E67204144432E2E2E0D0A000953A1
:1004CC00657474696E672041444320726566657279
:1004DC00656E636520746F205663632E2E2E0D0A95
:1004EC000009436F6E6669677572696E6720494FC4
:1004FC002E2E2E0D0A000953657474696E672053F5
:10050C0050490D0A000949444C450D0A0009525541
:10051C004E0D0A0009524541440D0A00095052493A
:0E052C004E540D0A002C200009200D0A00007C
:00000001FF
