:100000004BC0000066C0000064C0000062C0000079
:1000100060C000005EC000005CC000005AC000006C
:1000200058C0000056C0000054C0000052C000007C
:1000300050C000004EC000004CC000004AC000008C
:1000400048C0000046C0000044C0000042C000009C
:1000500040C000003EC000003CC000003AC00000AC
:1000600038C0000036C0000034C0000032C00000BC
:1000700030C000002EC000002CC000002AC00000CC
:1000800028C0000026C0000024C0000022C00000DC
:1000900020C000001EC0000011241FBECFEFD0E220
:1000A000DEBFCDBF11E0A0E0B1E0E6E4F7E000E0A4
:1000B0000BBF02C007900D92A63DB107D9F711E022
:1000C000A6EDB1E001C01D92AA3DB107E1F773D1E1
:1000D00038C396CFCF93DF93BC018230910510F4E3
:1000E00062E070E0A091D801B091D901ED01E0E0AB
:1000F000F0E040E050E021C08881998186179707A1
:1001000069F48A819B81309719F09383828304C0BC
:100110009093D9018093D801FE0134C06817790704
:1001200038F44115510519F08417950708F4AC010E
:10013000FE018A819B819C01E9012097E9F6411526
:100140005105A9F1CA01861B970B049708F4BA015F
:10015000E0E0F0E02AC08D919C91119784179507FB
:10016000F9F46417750781F412968D919C91139799
:10017000309719F09383828304C09093D9018093C0
:10018000D801FD0132964FC0CA01861B970BFD01B5
:10019000E80FF91F6193719302978D939C9343C06D
:1001A000FD01828193819C01D9011097A1F6809174
:1001B000D6019091D701892B41F48091D101909182
:1001C000D2019093D7018093D6014091D3015091F1
:1001D000D4014115510541F44DB75EB78091CF016F
:1001E0009091D001481B590B2091D6013091D70135
:1001F00024173507B0F4CA01821B930B86179707A3
:1002000080F0AB014E5F5F4F8417950750F0420FAF
:10021000531F5093D7014093D601F9016193719315
:1002200002C0E0E0F0E0CF01DF91CF910895CF93DD
:10023000DF93009709F450C0EC0122971B821A82C9
:10024000A091D801B091D901109709F140E050E098
:10025000AC17BD0708F1BB83AA83FE012191319140
:10026000E20FF31FAE17BF0779F48D919C911197A0
:10027000280F391F2E5F3F4F3983288312968D91A7
:100280009C9113979B838A834115510571F4D093F8
:10029000D901C093D80120C012968D919C911397DB
:1002A000AD01009711F0DC01D3CFFA01D383C283F3
:1002B00021913191E20FF31FCE17DF0769F4888196
:1002C0009981280F391F2E5F3F4FFA013183208318
:1002D0008A819B8193838283DF91CF910895EF92EE
:1002E000FF920F931F93CF93DF93EC017B018A0161
:1002F000E0E0F0E004C0B80111D2CB01319618164D
:100300001906CCF3EE0DFF1D09C0CE01B80106D2CF
:10031000805D8083CE01B80101D2EB0131971C16BC
:100320001D069CF381E090E0DF91CF911F910F912A
:10033000FF90EF900895E1E6F0E080E8808310827E
:1003400083E390E038D18CE041D180E091E050D15E
:100350008EE191E04DD185E060E0AAD18AE591E09F
:1003600047D17ED18DE691E043D180E491D180E9FF
:1003700091E03ED111B887EE84B98FEF87B987E459
:100380008DB910BA12B881E085B981E888B91EB874
:1003900011BA80E4809380008BE08093810088E133
:1003A00090E0909389008093880085EA91E020D1C5
:1003B00081E58CBD08952F923F924F925F926F928C
:1003C0007F928F929F92AF92BF92CF92DF92EF92E5
:1003D000FF920F931F93DF93CF9300D000D00F9223
:1003E000CDB7DEB7A8DF85D182E084BD85E085BDCD
:1003F0008FEF87BD87BD85B5887F85BD85B5856055
:1004000085BD1D821C8281E089834424552480EAB5
:10041000282E8FE0382ECCC08AE090E05BDE8A8305
:100420009B830894411C511C90E149169EE059069B
:1004300011F444245524C2016A817B814AE050E0D2
:100440004EDF84EB91E0D4D08A819B81D1D08EEBBA
:1004500091E0CED08A819B81EADE00E010E0A99B8A
:1004600003C0A99A0F5F1F4F1EB88E2D2FD1C10157
:100470000197F1F7E1E0EEB98A2D28D1C10101978A
:10048000F1F7F2E0FEB9882D21D1C1010197F1F712
:1004900083E08EB9862D1AD1C1010197F1F794E05E
:1004A0009EB98C2D13D1C1010197F1F7E5E0EEB9AA
:1004B0008C810CD1C1010197F1F7F981F13029F05C
:1004C000F13058F0F23019F50EC087D08823F9F0DA
:1004D00088D08337E1F419821AC0A99B18C0A99A61
:1004E00082E0898314C00E31110531F48A819B8129
:1004F0007FD08EEB91E07CD070D0882341F071D01A
:10050000833729F481EC91E073D091E09983EC81F9
:10051000FD81319781F4F3E0CF16D10461F4AA2470
:10052000BB24EE24FF241D821C82CC24DD246624FF
:100530007724882499240F3111050CF490CF089466
:10054000E11CF11C8AE0E816F1040CF465CF089474
:10055000A11CB11C96E0A916B1041CF4EE24FF24E2
:100560005BCF0894811C911CEAE08E1691041CF468
:10057000AA24BB24F3CF0894611C711CF6E06F160B
:1005800071041CF488249924F3CF0894C11CD11C55
:100590008AE0C816D1041CF466247724F3CFEC81DA
:1005A000FD813196FD83EC83319711F01D821C8211
:1005B000CC24DD24F1CF9093CD008093CC0088E152
:1005C0008093C90086E08093CA0008959091C80086
:1005D00095FFFCCF8093CE0008958091C80080786D
:1005E00008958091C80087FFFCCF8091CE000895C8
:1005F000EF92FF92CF93DF93E82EE7017E01F92E71
:10060000E70101C0E3DF89918823E1F7DF91CF9112
:10061000FF90EF900895EAE7F0E09081987F908353
:1006200090818770892B80830895882399F0809129
:100630007B008B7F80937B0080917B008D7F8093FC
:100640007B0080917B008E7F80937B0080917A007D
:10065000806203C080917A008F7D80937A00089534
:10066000EAE7F0E08081806880830895EAE7F0E0BF
:100670008081806480830895EAE7F0E08081806172
:100680008083089590917A0081E094FF80E008953E
:1006900090917C009F7390937C0090917C00807C73
:1006A000892B80937C00E2DFEDDF8823E9F3E4CF40
:1006B000DF93CF930F92CDB7DEB76983ACDF69814B
:1006C000862FB3DF0F90CF91DF9108958EBD0DB4CB
:1006D00007FEFDCF1EBC0DB407FEFDCF1EBC0DB442
:1006E00007FEFDCF2F9A8AEF90E00197F1F72F9840
:1006F00008950895AA1BBB1B51E107C0AA1FBB1F89
:10070000A617B70710F0A61BB70B881F991F5A959D
:10071000A9F780959095BC01CD01089597FB092E0E
:1007200007260AD077FD04D0E5DF06D000201AF4B2
:10073000709561957F4F0895F6F7909581959F4F3D
:060740000895F894FFCFBC
:1007460057756E646572426F61726420696E697472
:1007560069616C697A696E672E2E2E0D0A0009533F
:10076600657474696E6720414443207072657363D3
:10077600616C657220616E642064697361626C6984
:100786006E6720667265652072756E6E696E67208B
:100796006D6F64652E2E2E0D0A0009456E61626C22
:1007A600696E67204144432E2E2E0D0A00095365BB
:1007B6007474696E6720414443207265666572658C
:1007C6006E636520746F205663632E2E2E0D0A000D
:1007D60009436F6E6669677572696E6720494F2EA9
:1007E6002E2E0D0A000953657474696E67205350E6
:1007F600490D0A005365636F6E64733A20000D0A53
:10080600004465766963652049646C650D0A0020BD
:0608160000DA0100000001
:00000001FF
