:100000004BC0000066C0000064C0000062C0000079
:1000100060C000005EC000005CC000005AC000006C
:1000200058C0000056C0000054C0000052C000007C
:1000300050C000004EC000004CC000004AC000008C
:1000400048C0000046C0000044C0000042C000009C
:1000500040C000003EC000003CC000003AC00000AC
:1000600038C0000036C0000034C0000032C00000BC
:1000700030C000002EC000002CC000002AC00000CC
:1000800028C0000026C0000024C0000022C00000DC
:1000900020C000001EC0000011241FBECFEFD0E220
:1000A000DEBFCDBF11E0A0E0B1E0E8E1F3E000E0A9
:1000B0000BBF02C007900D92A43BB107D9F711E026
:1000C000A4EBB1E001C01D92A43BB107E1F740D021
:1000D00021C196CFE1E6F0E080E88083108283E3DF
:1000E00090E084D08CE08DD080E091E091D08EE1E2
:1000F00091E08ED085E060E0EBD08AE591E088D099
:10010000BFD08DE691E084D080E4D2D080E991E048
:100110007FD011B887EE84B98FEF87B987E48DB9A6
:1001200010BA12B881E085B91EB811BA80E4809384
:1001300080008BE08093810088E190E090938900BB
:100140008093880085EA91E063D081E58CBD0895B5
:100150000F931F93CF93DF93BDDFC8D080ED97E05F
:1001600028EC30E0F9013197F1F70197D9F780EDEC
:1001700097E028EC30E0F9013197F1F70197D9F7D2
:1001800080ED97E028EC30E0F9013197F1F7019725
:10019000D9F780ED97E028EC30E0F9013197F1F7DD
:1001A0000197D9F780ED97E028EC30E0F90131971D
:1001B000F1F70197D9F781E08EB9C0E0D0E008EC03
:1001C00010E080B18823E9F30AC08C2F90D080E141
:1001D00097E2F8013197F1F70197D9F72196CF3FD0
:1001E000D1057CF780B1882381F7EBCF9093CD00C8
:1001F0008093CC0088E18093C90086E08093CA0098
:1002000008959091C80095FFFCCF8093CE0008958B
:10021000EF92FF92CF93DF93E82EE7017E01F92E54
:10022000E70101C0EEDF89918823E1F7DF91CF91EB
:10023000FF90EF900895EAE7F0E09081987F908337
:1002400090818770892B80830895882399F080910D
:100250007B008B7F80937B0080917B008D7F8093E0
:100260007B0080917B008E7F80937B0080917A0061
:10027000806203C080917A008F7D80937A00089518
:10028000EAE7F0E08081806880830895EAE7F0E0A3
:100290008081806480830895EAE7F0E08081806156
:1002A0008083089590917A0081E094FF80E0089522
:1002B00090917C009F7390937C0090917C00807C57
:1002C000892B80937C00E2DFEDDF8823E9F3E4CF24
:1002D000DF93CF930F92CDB7DEB76983ACDF69812F
:1002E000862FB3DF0F90CF91DF91089508951EBC44
:1002F0000DB407FEFDCF1EBC0DB407FEFDCF8EBDB5
:100300000DB407FEFDCF2F9A8AEF90E00197F1F729
:080310002F980895F894FFCF27
:1003180057756E646572426F61726420696E6974A4
:1003280069616C697A696E672E2E2E0D0A00095371
:10033800657474696E672041444320707265736305
:10034800616C657220616E642064697361626C69B6
:100358006E6720667265652072756E6E696E6720BD
:100368006D6F64652E2E2E0D0A0009456E61626C54
:10037800696E67204144432E2E2E0D0A00095365ED
:100388007474696E672041444320726566657265BE
:100398006E636520746F205663632E2E2E0D0A003F
:1003A80009436F6E6669677572696E6720494F2EDB
:1003B8002E2E0D0A000953657474696E6720535018
:0403C800490D0A00D1
:00000001FF
