:100000004BC0000066C0000064C0000062C0000079
:1000100060C000005EC000005CC000005AC000006C
:1000200058C0000056C0000054C0000052C000007C
:1000300050C000004EC000004CC000004AC000008C
:1000400048C0000046C0000044C0000042C000009C
:1000500040C000003EC000003CC000003AC00000AC
:1000600038C0000036C0000034C0000032C00000BC
:1000700030C000002EC000002CC000002AC00000CC
:1000800028C0000026C0000024C0000022C00000DC
:1000900020C000001EC0000011241FBECFEFD0E220
:1000A000DEBFCDBF11E0A0E0B1E0E0E4F4E000E0AD
:1000B0000BBF02C007900D92A63DB107D9F711E022
:1000C000A6EDB1E001C01D92A63DB107E1F772D0E7
:1000D000B5C196CFFB019F01E8944230BCF0453298
:1000E000ACF44A3029F497FB1EF4909581959F4F0C
:1000F000642F77278FD1805D8A330CF0895D8193DF
:10010000CB010097A9F716F45DE251931082C90163
:1001100000C0DC01FC01672F71917723E1F7329772
:1001200004C07C916D9370836291AE17BF07C8F3D2
:100130000895E1E6F0E080E88083108283E390E0B8
:1001400004D18CE090E00CD180E091E009D18EE107
:1001500091E006D185E060E031D18AE591E000D1FF
:1001600027D18DE691E0FCD080E408D180E991E0D0
:10017000F7D011B887EE84B98FEF87B987E48DB9CE
:1001800010BA12B881E085B981E888B91EB811BAF1
:1001900080E4809380008BE08093810088E190E090
:1001A000909389008093880085EA91E0D9D081E519
:1001B0008CBD0895AF92BF92CF92DF92EF92FF92E3
:1001C0000F931F93DF93CF93CDB7DEB7CF5FD040B0
:1001D0000FB6F894DEBF0FBECDBFABDF18D138EC41
:1001E000A32EB12C6E010894C11CD11C80B188B91A
:1001F00088B1813009F436C027E0E22EF12C00E00E
:1002000010E0EEB8802F602F03D1802F6E2D00D12B
:10021000C5010197F1F784EB91E0A2D0C801B601C6
:100220004AE050E057DF9CD08BEB91E099D0C801B9
:10023000B6014AE050E04EDF93D087EC91E090D0D9
:10024000C701B6014AE050E045DF8AD080E0DCD04B
:100250000894E108F1080F5F1F4F8FEFE8168FEF4A
:10026000F80679F6419B37C0D2D097E0E92EF12C01
:1002700000E010E0EEB8802F602FCAD0802F6E2DE6
:10028000C7D0C5010197F1F784EB91E069D0C801AF
:10029000B6014AE050E01EDF63D08BEB91E060D006
:1002A000C801B6014AE050E015DF5AD087EC91E072
:1002B00057D0C701B6014AE050E00CDF51D080E0D2
:1002C000A5D00894E108F1080F5F1F4F8FEFE816E3
:1002D0008FEFF80679F6459B89CF99D087E0E82E15
:1002E000F12C00E010E0EEB8802F602F92D0802F2C
:1002F0006E2D8FD0C5010197F1F784EB91E030D0DE
:10030000C801B6014AE050E0E5DE2AD08BEB91E06F
:1003100027D0C801B6014AE050E0DCDE21D087ECEE
:1003200091E01ED0C701B6014AE050E0D3DE18D0FC
:1003300080E06BD00894E108F1080F5F1F4F8FEF4A
:10034000E8168FEFF80679F651CF9093CD008093A1
:10035000CC0088E18093C90086E08093CA000895AC
:10036000E82FF92F07C08091C80085FFFCCF90933C
:10037000CE00319690819923B1F7089590917C0039
:100380009F7390937C0090917C00807C892B80935C
:100390007C0080917A00806480937A0080917A005A
:1003A00084FFFCCF80917A00806180937A00089569
:1003B000EAE7F0E0808180688083089590917A0078
:1003C000987F90937A0090917A008770892B809320
:1003D0007A00662399F080917B008B7F80937B006D
:1003E00080917B008D7F80937B0080917B008E7F4E
:1003F00080937B0080917A00806203C080917A00B4
:100400008F7D80937A000895089508950895089542
:1004100008950895AA1BBB1B51E107C0AA1FBB1F6B
:10042000A617B70710F0A61BB70B881F991F5A9580
:10043000A9F780959095BC01CD010895F894FFCF60
:1004400057756E646572426F61726420696E69747B
:1004500069616C697A696E672E2E2E0D0A00095348
:10046000657474696E6720414443207072657363DC
:10047000616C657220616E642064697361626C698D
:100480006E6720667265652072756E6E696E672094
:100490006D6F64652E2E2E0D0A0009456E61626C2B
:1004A000696E67204144432E2E2E0D0A00095365C4
:1004B0007474696E67204144432072656665726595
:1004C0006E636520746F205663632E2E2E0D0A0016
:1004D00009436F6E6669677572696E6720494F2EB2
:1004E0002E2E0D0A000953657474696E67205350EF
:1004F000490D0A00090D0A583A2000090D0A592829
:10050000746F70293A2000090D0A5928626F7474BB
:060510006F6D293A200086
:00000001FF
