:100000004BC0000066C0000064C0000062C0000079
:1000100060C000005EC000005CC000005AC000006C
:1000200058C0000056C0000054C0000052C000007C
:1000300050C000004EC000004CC000004AC000008C
:1000400048C0000046C0000044C0000042C000009C
:1000500040C000003EC000003CC000003AC00000AC
:1000600038C0000036C0000034C0000032C00000BC
:1000700030C000002EC000002CC000002AC00000CC
:1000800028C0000026C0000024C0000022C00000DC
:1000900020C000001EC0000011241FBECFEFD0E220
:1000A000DEBFCDBF11E0A0E0B1E0E8ECF5E000E09C
:1000B0000BBF02C007900D92AC3BB107D9F711E01E
:1000C000ACEBB1E001C01D92AC3BB107E1F79BD0B6
:1000D00079C296CFE1E6F0E080E88083108283E386
:1000E00090E0AAD18CE0B3D182E091E0C2D180E26D
:1000F00091E0BFD185E060E01CD28CE591E0B9D100
:10010000F0D18FE691E0B5D180E403D282E991E0AD
:10011000B0D111B887EE84B98FEF87B987E48DB974
:1001200010BA12B881E085B981E888B91EB811BA51
:1001300080E4809380008BE08093810088E190E0F0
:10014000909389008093880087EA91E092D181E5BD
:100150008CBD0895CF93DF93DC010D900020E9F76B
:100160001197A81BB90BAD0141505040EC01FC01A7
:10017000EA0FFB1F20E030E008C09881808189935E
:1001800090832F5F3F4F41505040319724173507E0
:10019000A4F3DF91CF910895EF92FF920F931F93F5
:1001A000CF93DF938C017B019C0197FF04C0222732
:1001B0003327281B390BC0E0D0E0F701EC0FFD1FFF
:1001C000C9016AE070E0EBD1805D80832196C901AE
:1001D0006AE070E0E4D19B011616170674F317FF6E
:1001E00006C0F701EC0FFD1F8DE280832196CE0D36
:1001F000DF1D1882C701AEDFDF91CF911F910F91F4
:10020000FF90EF9008952F923F924F925F926F92DE
:100210007F928F929F92AF92BF92CF92DF92EF9296
:10022000FF920F931F93DF93CF93CDB7DEB7649701
:100230000FB6F894DEBF0FBECDBF4CDF9BD182E07E
:1002400084BD85E085BD8FEF87BD08D18823E9F3A4
:1002500009D18337D1F7E9C00430110529F48B891E
:100260009C8901969C8B8B8B66247724CEC0A99B9E
:10027000FECFA99A16BC8B899C89039741F594E01F
:100280009EB9802F64D1C2010197F1F780E05FD160
:1002900085E08EB98E2D5BD1C2010197F1F780E028
:1002A00056D160ED262E67E0362E5AE0C52ED12CB1
:1002B00046E0A42EB12C0AE010E033E0E32EF12C4E
:1002C0002AE0822E912C96E0692E712C35C095E0A3
:1002D0009EB98E2D3CD1C2010197F1F780E037D154
:1002E00084E08EB9802F33D1C2010197F1F780E00D
:1002F0002ED193E09EB9862D2AD1C2010197F1F744
:1003000080E025D182E08EB9882D21D1C2010197EC
:10031000F1F780E01CD191E09EB98A2D18D1C2017D
:100320000197F1F780E013D11EB88C2D10D1C201D6
:100330000197F1F780E00BD1C701BE016F5F7F4FDE
:100340002BDFC801BE016C5F7F4F26DFC301BE01FA
:10035000695F7F4F21DFC401BE01665F7F4F1CDFF5
:10036000C501BE01635F7F4F17DFC601BE01605F3D
:100370007F4F12DFCE0101967CD0CE01049679D05A
:1003800080E091E076D0CE01079673D0CE010A9638
:1003900070D080E091E06DD0CE010D966AD0CE0194
:1003A000409667D086EB91E064D00894211C311C04
:1003B00084E2281631040CF45ACF0894C11CD11CD5
:1003C0009AE0C916D1041CF42224332450CF089497
:1003D000A11CB11C86E0A816B10434F4CC24DD24A1
:1003E00088EC482E512CF0CF0894811C911C9AE087
:1003F000891691041CF4AA24BB24F0CF0894611C34
:10040000711C86E0681671041CF488249924F3CFCB
:100410000F5F1F4F0A3011050CF41ECF0894E11C2A
:10042000F11C93E0E916F10424F0EE24FF241C8A69
:100430001B8A00E010E018CF9093CD008093CC0091
:1004400088E18093C90086E08093CA000895909166
:10045000C80095FFFCCF8093CE0008958091C8001E
:10046000807808958091C80087FFFCCF8091CE00EE
:100470000895EF92FF92CF93DF93E82EE7017E017C
:10048000F92EE70101C0E3DF89918823E1F7DF91CD
:10049000CF91FF90EF900895EAE7F0E09081987F88
:1004A000908390818770892B80830895882399F0A9
:1004B00080917B008B7F80937B0080917B008D7F80
:1004C00080937B0080917B008E7F80937B00809166
:1004D0007A00806203C080917A008F7D80937A00D9
:1004E0000895EAE7F0E08081806880830895EAE774
:1004F000F0E08081806480830895EAE7F0E0808105
:1005000080618083089590917A0081E094FF80E07B
:10051000089590917C009F7390937C0090917C0053
:10052000807C892B80937C00E2DFEDDF8823E9F378
:10053000E4CFDF93CF930F92CDB7DEB76983ACDF03
:100540006981862FB3DF0F90CF91DF9108951EBC94
:100550000DB407FEFDCF1EBC0DB407FEFDCF8EBD52
:100560000DB407FEFDCF2F9A8AEF90E00197F1F7C7
:100570002F9808950895AA1BBB1B51E107C0AA1F1D
:10058000BB1FA617B70710F0A61BB70B881F991F34
:100590005A95A9F780959095BC01CD01089597FBD8
:1005A000092E07260AD077FD04D0E5DF06D000200B
:1005B0001AF4709561957F4F0895F6F7909581959F
:0805C0009F4F0895F894FFCF4E
:1005C8003A0057756E646572426F61726420696E95
:1005D800697469616C697A696E672E2E2E0D0A003E
:1005E8000953657474696E672041444320707265CD
:1005F8007363616C657220616E6420646973616203
:100608006C696E6720667265652072756E6E696EBC
:1006180067206D6F64652E2E2E0D0A0009456E61E8
:10062800626C696E67204144432E2E2E0D0A000924
:1006380053657474696E672041444320726566652A
:1006480072656E636520746F205663632E2E2E0DBF
:100658000A0009436F6E6669677572696E6720499B
:100668004F2E2E2E0D0A000953657474696E67208B
:0C0678005350490D0A0009200D0A000033
:00000001FF
