:100000004BC0000066C0000064C0000062C0000079
:1000100060C000005EC000005CC000005AC000006C
:1000200058C0000056C0000054C0000052C000007C
:1000300050C000004EC000004CC000004AC000008C
:1000400048C0000046C0000044C0000042C000009C
:1000500040C000003EC000003CC000003AC00000AC
:1000600038C0000036C0000034C0000032C00000BC
:1000700030C000002EC000002CC000002AC00000CC
:1000800028C0000026C0000024C0000022C00000DC
:1000900020C000001EC0000011241FBECFEFD0E220
:1000A000DEBFCDBF11E0A0E0B1E0E4EDF2E000E0A2
:1000B0000BBF02C007900D92A63CB107D9F711E023
:1000C000A6ECB1E001C01D92A63CB107E1F742D019
:1000D000FFC096CFE1E6F0E080E88083108283E302
:1000E00090E03FD08CE048D081E191E04CD08FE2AD
:1000F00091E049D085E060E0BCD08BE691E043D050
:1001000090D08EE791E03FD080E4A3D081EA91E0E7
:100110003AD011B887EE84B98FEF87B987E48DB9EB
:1001200010BA12B881E085B981E888B91EB811BA51
:1001300080E4809380008BE08093810088E190E0F0
:10014000909389008093880086EB91E01CD081E534
:100150008CBD0895BFDFBBD01EB885E098D0A4D079
:10016000FCCF9093CD008093CC0088E18093C900B0
:1001700086E08093CA0008959091C80095FFFCCF57
:100180008093CE000895EF92FF92CF93DF93E82EF5
:10019000E7017E01F92EE70101C0EEDF8991882396
:1001A000E1F7DF91CF91FF90EF900895ECE7F0E059
:1001B0009081907E908390818F71892B80830895A8
:1001C000813021F480917C00806203C080917C00AA
:1001D0008F7D80937C000895EAE7F0E09081987F1E
:1001E000908390818770892B80830895882399F06C
:1001F00080917B008B7F80937B0080917B008D7F43
:1002000080937B0080917B008E7F80937B00809128
:100210007A00806203C080917A008F7D80937A009B
:100220000895EAE7F0E08081806880830895EAE736
:10023000F0E08081806480830895EAE7F0E08081C7
:1002400080618083089590917A0081E094FF80E03E
:10025000089590917C009F7390937C0090917C0016
:10026000807C892B80937C00E2DFEDDF8823E9F33B
:10027000E4CFDF93CF930F92CDB7DEB76983ACDFC6
:100280006981862FB3DF0F90CF91DF9108958EDFC4
:1002900080E096DFCCDFD7DF8823E9F3CEDF8091E3
:1002A00078009091790008951EBC0DB407FEFDCF33
:1002B0001EBC0DB407FEFDCF8EBD0DB407FEFDCFF5
:1002C0002F9A8AEF90E00197F1F72F9808950895FB
:0402D000F894FFCFD0
:1002D40030313233343536373839616263646566B8
:1002E4000057756E646572426F61726420696E694D
:1002F4007469616C697A696E672E2E2E0D0A000985
:1003040053657474696E6720414443207072657349
:1003140063616C657220616E642064697361626CF0
:10032400696E6720667265652072756E6E696E67A8
:10033400206D6F64652E2E2E0D0A0009456E6162D4
:100344006C696E67204144432E2E2E0D0A0009531A
:10035400657474696E6720414443207265666572F2
:10036400656E636520746F205663632E2E2E0D0A0E
:100374000009436F6E6669677572696E6720494F3D
:100384002E2E2E0D0A000953657474696E6720536E
:0603940050490D0A0000B3
:00000001FF
