:100000004BC0000066C0000064C0000062C0000079
:1000100060C000005EC000005CC000005AC000006C
:1000200058C0000056C0000054C0000052C000007C
:1000300050C000004EC000004CC000004AC000008C
:1000400048C0000046C0000044C0000042C000009C
:1000500040C000003EC000003CC000003AC00000AC
:1000600038C0000036C0000034C0000032C00000BC
:1000700030C000002EC000002CC000002AC00000CC
:1000800028C0000026C0000024C0000022C00000DC
:1000900020C000001EC0000011241FBECFEFD0E220
:1000A000DEBFCDBF11E0A0E0B1E0E8E9F4E000E0A0
:1000B0000BBF02C007900D92A43CB107D9F711E025
:1000C000A4ECB1E001C01D92A43CB107E1F742D01D
:1000D000E1C196CFE1E6F0E080E88083108283E31F
:1000E00090E0E0D08CE0E9D080E091E0EDD08EE1CE
:1000F00091E0EAD085E060E047D18AE591E0E4D084
:100100001BD18DE691E0E0D080E42ED180E991E032
:10011000DBD011B887EE84B98FEF87B987E48DB94A
:1001200010BA12B881E085B981E888B91EB811BA51
:1001300080E4809380008BE08093810088E190E0F0
:10014000909389008093880085EA91E0BDD081E595
:100150008CBD0895BFDF35D180B188B988B18130B9
:1001600009F433C084EB91E0AFD080E060E051D17E
:1001700080E067E04ED187E060E04BD187E067E048
:1001800048D181E061E045D182E062E042D183E084
:1001900063E03FD181E066E03CD182E065E039D1A7
:1001A00083E064E036D186E066E033D185E065E047
:1001B00030D184E064E02DD186E061E02AD185E091
:1001C00062E027D184E063E024D1409B34C08AEB15
:1001D00091E07AD0F6D080E060E03CD180E067E04A
:1001E00039D187E060E036D187E067E033D181E044
:1001F00061E030D182E062E02DD183E063E02AD17A
:1002000081E066E027D182E065E024D183E064E00C
:1002100021D186E066E01ED185E065E01BD184E057
:1002200064E018D186E061E015D185E062E012D18A
:1002300084E063E00FD1459B8FCF8EEB91E044D0FB
:10024000C0D080E060E0C5D080E067E0C2D087E049
:1002500060E0BFD087E067E0BCD081E061E0B9D06A
:1002600082E062E0B6D083E063E0B3D081E066E094
:10027000B0D082E065E0ADD083E064E0AAD086E053
:1002800066E0A7D085E065E0A4D084E064E0A1D07A
:1002900086E061E09ED085E062E09BD084E063E090
:1002A00098D05ACF9093CD008093CC0088E1809372
:1002B000C90086E08093CA0008959091C80095FF18
:1002C000FCCF8093CE000895EF92FF92CF93DF93FF
:1002D000E82EE7017E01F92EE70101C0EEDF8991EA
:1002E0008823E1F7DF91CF91FF90EF900895EAE73F
:1002F000F0E09081987F908390818770892B808334
:100300000895882399F080917B008B7F80937B00F8
:1003100080917B008D7F80937B0080917B008E7F1E
:1003200080937B0080917A00806203C080917A0084
:100330008F7D80937A000895EAE7F0E080818068FD
:1003400080830895EAE7F0E08081806480830895E7
:10035000EAE7F0E0808180618083089590917A00DF
:1003600081E094FF80E0089590917C009F739093CA
:100370007C0090917C00807C892B80937C00E2DF64
:10038000EDDF8823E9F3E4CFDF93CF930F92CDB76E
:10039000DEB76983ACDF6981862FB3DF0F90CF9121
:1003A000DF9108958EBD0DB407FEFDCF6EBD0DB477
:1003B00007FEFDCF4EBD0DB407FEFDCF2F9A2F983F
:1003C000089580E060E040E0EDCF80E060E040E054
:1003D000E9CF1F93DF93CF930F92CDB7DEB79EB1D6
:1003E000182F10951770987F192B6983EEDF1EB9AF
:1003F0006981677040E850E002C0559547956A955D
:10040000E2F780E060E0CEDF0F90CF91DF911F91A7
:1004100008951F93DF93CF930F92CDB7DEB79EB1B0
:10042000182F10951770987F192B6983CEDF1EB98E
:100430006981862F877060E870E002C075956795C6
:100440008A95E2F780E040E0ADDF0F90CF91DF9139
:100450001F9108951F93DF93CF930F92CDB7DEB70F
:100460009EB1182F10951770987F192B6983ADDFF7
:100470001EB96981677080E890E002C09595879504
:100480006A95E2F760E040E08DDF0F90CF91DF9159
:080490001F910895F894FFCFBD
:1004980057756E646572426F61726420696E697423
:1004A80069616C697A696E672E2E2E0D0A000953F0
:1004B800657474696E672041444320707265736384
:1004C800616C657220616E642064697361626C6935
:1004D8006E6720667265652072756E6E696E67203C
:1004E8006D6F64652E2E2E0D0A0009456E61626CD3
:1004F800696E67204144432E2E2E0D0A000953656C
:100508007474696E6720414443207265666572653C
:100518006E636520746F205663632E2E2E0D0A00BD
:1005280009436F6E6669677572696E6720494F2E59
:100538002E2E0D0A000953657474696E6720535096
:10054800490D0A00677265656E0052656400626C49
:0405580075650000C5
:00000001FF
