:100000004BC0000066C0000064C0000062C0000079
:1000100060C000005EC000005CC000005AC000006C
:1000200058C0000056C0000054C0000052C000007C
:1000300050C000004EC000004CC000004AC000008C
:1000400048C0000046C0000044C0000042C000009C
:1000500040C000003EC000003CC000003AC00000AC
:1000600038C0000036C0000034C0000032C00000BC
:1000700030C000002EC000002CC000002AC00000CC
:1000800028C0000026C0000024C0000022C00000DC
:1000900020C000001EC0000011241FBECFEFD0E220
:1000A000DEBFCDBF11E0A0E0B1E0EEE3F5E000E09F
:1000B0000BBF02C007900D92A43BB107D9F711E026
:1000C000A4EBB1E001C01D92A43BB107E1F740D021
:1000D00034C296CFE1E6F0E080E88083108283E3CB
:1000E00090E032D18CE03BD180E091E03FD18EE1D5
:1000F00091E03CD185E060E099D18AE591E036D18C
:100100006DD18DE691E032D180E480D180E991E03B
:100110002DD111B887EE84B98FEF87B987E48DB9F7
:1001200010BA12B881E085B91EB811BA80E4809384
:1001300080008BE08093810088E190E090938900BB
:100140008093880085EA91E011D181E58CBD089506
:100150002F923F924F925F926F927F928F929F92D7
:10016000AF92BF92CF92DF92EF92FF920F931F93C5
:10017000CF93DF93AFDF68D180ED97E028EC30E0DC
:10018000F9013197F1F70197D9F780ED97E028EC65
:1001900030E0F9013197F1F70197D9F780ED97E059
:1001A00028EC30E0F9013197F1F70197D9F780EDAC
:1001B00097E028EC30E0F9013197F1F70197D9F792
:1001C00080ED97E028EC30E0F9013197F1F70197E5
:1001D000D9F700E010E02224332458EC452E512CAE
:1001E000B0C0C430D10519F40894211C311C662418
:1001F000772496C083E02816310439F584E08EB95F
:100200008C2F23D1C2010197F1F780E01ED185E048
:100210008EB9802F1AD1C2010197F1F780E015D174
:1002200040ED842E47E0942E3AE0E32EF12C26E0B8
:10023000C22ED12C9AE0A92EB12C86E0682E712C0A
:10024000CAE0D0E003E010E035C01EB88E2DFDD02E
:10025000C2010197F1F780E0F8D081E08EB98C2DD2
:10026000F4D0C2010197F1F780E0EFD082E08EB9BF
:100270008A2DEBD0C2010197F1F780E0E6D083E050
:100280008EB9862DE2D0C2010197F1F780E0DDD072
:1002900084E08EB98C2FD9D0C2010197F1F780E0AC
:1002A000D4D085E08EB9802FD0D0C2010197F1F76C
:1002B00080E0CBD00894811C911CB401882777FD85
:1002C0008095982FDBD02CEE31E345EB53E4D0D072
:1002D00018160CF08FCF0894E11CF11C8AE0E81688
:1002E000F1041CF488249924E8CF0894C11CD11C83
:1002F00086E0C816D1041CF4EE24FF24F3CF089442
:10030000A11CB11C8AE0A816B1041CF4CC24DD2485
:10031000F3CF0894611C711C86E0681671041CF40C
:10032000AA24BB24F3CF2196CA30D1050CF459CFAF
:100330000F5F1F4F0330110524F000E010E022246E
:100340003324C0E0D0E053CF9093CD008093CC0015
:1003500088E18093C90086E08093CA000895909157
:10036000C80095FFFCCF8093CE000895EF92FF92D6
:10037000CF93DF93E82EE7017E01F92EE70101C05C
:10038000EEDF89918823E1F7DF91CF91FF90EF9025
:100390000895EAE7F0E09081987F908390818770DC
:1003A000892B80830895882399F080917B008B7F2F
:1003B00080937B0080917B008D7F80937B00809178
:1003C0007B008E7F80937B0080917A00806203C0E7
:1003D00080917A008F7D80937A000895EAE7F0E0BB
:1003E0008081806880830895EAE7F0E080818064FE
:1003F00080830895EAE7F0E080818061808308953A
:1004000090917A0081E094FF80E0089590917C00C3
:100410009F7390937C0090917C00807C892B8093CB
:100420007C00E2DFEDDF8823E9F3E4CFDF93CF93B5
:100430000F92CDB7DEB76983ACDF6981862FB3DF5A
:100440000F90CF91DF91089508951EBC0DB407FE63
:10045000FDCF1EBC0DB407FEFDCF8EBD0DB407FE53
:10046000FDCF2F9A8AEF90E00197F1F72F9808952A
:1004700040D008F481E00895E89409C097FB3EF469
:1004800090958095709561957F4F8F4F9F4F9923E1
:10049000A9F0F92F96E9BB279395F695879577955F
:1004A0006795B795F111F8CFFAF4BB0F11F460FF1F
:1004B0001BC06F5F7F4F8F4F9F4F16C0882311F077
:1004C00096E911C0772321F09EE8872F762F05C08B
:1004D000662371F096E8862F70E060E02AF09A9526
:1004E000660F771F881FDAF7880F9695879597F91B
:1004F0000895990F0008550FAA0BE0E8FEEF1616B5
:100500001706E807F907C0F012161306E407F50707
:1005100098F0621B730B840B950B39F40A2661F07B
:10052000232B242B252B21F408950A2609F4A1401E
:0E053000A6958FEF811D811D0895F894FFCFD1
:10053E0057756E646572426F61726420696E69747C
:10054E0069616C697A696E672E2E2E0D0A00095349
:10055E00657474696E6720414443207072657363DD
:10056E00616C657220616E642064697361626C698E
:10057E006E6720667265652072756E6E696E672095
:10058E006D6F64652E2E2E0D0A0009456E61626C2C
:10059E00696E67204144432E2E2E0D0A00095365C5
:1005AE007474696E67204144432072656665726596
:1005BE006E636520746F205663632E2E2E0D0A0017
:1005CE0009436F6E6669677572696E6720494F2EB3
:1005DE002E2E0D0A000953657474696E67205350F0
:0405EE00490D0A00A9
:00000001FF
