:100000004BC0000066C0000064C0000062C0000079
:1000100060C000005EC000005CC000005AC000006C
:1000200058C0000056C0000054C0000052C000007C
:1000300050C000004EC000004CC000004AC000008C
:1000400048C0000046C0000044C0000042C000009C
:1000500040C000003EC000003CC000003AC00000AC
:1000600038C0000036C0000034C0000032C00000BC
:1000700030C000002EC000002CC000002AC00000CC
:1000800028C0000026C0000024C0000022C00000DC
:1000900020C000001EC0000011241FBECFEFD0E220
:1000A000DEBFCDBF11E0A0E0B1E0E4E4F6E000E0A7
:1000B0000BBF02C007900D92A03EB107D9F711E027
:1000C000A0EEB1E001C01D92A63EB107E1F7A6D0B7
:1000D000B7C296CFFB019F01E8944230BCF0453295
:1000E000ACF44A3029F497FB1EF4909581959F4F0C
:1000F000642F772791D2805D8A330CF0895D8193DC
:10010000CB010097A9F716F45DE251931082C90163
:1001100035C00F931F93CF93DF938C01E091E201E1
:10012000F091E301838181FF21C0C0E0D0E00DC0E8
:10013000E091E201F091E30120853185BF01F901F1
:100140000995892B11F0CFEFDFEFF80181918F0135
:10015000882371F7E091E201F091E3012085318578
:100160008AE0BF01F9010995892B11F0CFEFDFEF8C
:10017000CE01DF91CF911F910F910895DC01FC0119
:10018000672F71917723E1F7329704C07C916D93CB
:1001900070836291AE17BF07C8F30895E1E6F0E0FF
:1001A00080E88083108283E390E005D18CE00ED15B
:1001B00080E091E012D18EE191E00FD185E060E026
:1001C0006CD18AE591E009D140D18DE691E005D16D
:1001D00080E453D180E991E000D111B887EE84B971
:1001E0008FEF87B987E48DB910BA12B881E085B96D
:1001F00081E888B91EB811BA80E4809380008BE052
:100200008093810088E190E090938900809388003A
:1002100085EA91E0E2D081E58CBD0895AF92BF926E
:10022000CF92DF92EF92FF920F931F93DF93CF93C2
:10023000CDB7DEB7A1970FB6F894DEBF0FBECDBF26
:10024000ADDF81D138ECA32EB12C6E010894C11C16
:10025000D11C80B188B984EB91E05BDF88B181303B
:1002600009F436C027E0E22EF12C00E010E0EEB8F1
:10027000802F602F90D1802F6E2D8DD1C5010197D9
:10028000F1F78DEB91E0A9D0C801B6014AE050E04A
:1002900021DF9CD084EC91E0A0D0C801B6014AE0F7
:1002A00050E018DF93D080ED91E097D0C701B60100
:1002B0004AE050E00FDF8AD080E0FDD00894E108EA
:1002C000F1080F5F1F4F8FEFE8168FEFF80679F6F2
:1002D000419B37C038D197E0E92EF12C00E010E0C7
:1002E000EEB8802F602F78D1802F6E2D75D1C5018B
:1002F0000197F1F78DEB91E070D0C801B6014AE0AB
:1003000050E0E8DE63D084EC91E067D0C801B6012C
:100310004AE050E0DFDE5AD080ED91E05ED0C701C8
:10032000B6014AE050E0D6DE51D080E0EAD0089431
:10033000E108F1080F5F1F4F8FEFE8168FEFF80607
:1003400079F6459B86CFFFD087E0E82EF12C00E0C0
:1003500010E0EEB8802F602FFED0802F6E2DFBD0E6
:10036000C5010197F1F78DEB91E037D0C801B601D7
:100370004AE050E0AFDE2AD084EC91E02ED0C801F4
:10038000B6014AE050E0A6DE21D080ED91E025D014
:10039000C701B6014AE050E09DDE18D080E09ED053
:1003A0000894E108F1080F5F1F4F8FEFE8168FEFF9
:1003B000F80679F64ECF9093CD008093CC0088E17B
:1003C0008093C90086E08093CA0008959091C80088
:1003D00095FFFCCF8093CE000895EF92FF92CF93CC
:1003E000DF93E82EE7017E01F92EE70101C0EEDF81
:1003F00089918823E1F7DF91CF91FF90EF900895E5
:10040000EAE7F0E09081987F908390818770892B54
:1004100080830895882399F080917B008B7F80935F
:100420007B0080917B008D7F80937B0080917B009F
:100430008E7F80937B0080917A00806203C08091E0
:100440007A008F7D80937A000895EAE7F0E080815A
:10045000806880830895EAE7F0E08081806480838B
:100460000895EAE7F0E080818061808308959091AB
:100470007A0081E094FF80E0089590917C009F7362
:1004800090937C0090917C00807C892B80937C00F1
:10049000E2DFEDDF8823E9F3E4CFDF93CF930F9220
:1004A000CDB7DEB76983ACDF6981862FB3DF0F90EC
:1004B000CF91DF9108951EBC0DB407FEFDCF8EBD18
:1004C0000DB407FEFDCF1EBC0DB407FEFDCF2F9A65
:1004D0008AEF90E00197F1F72F9808951EBC0DB4B4
:1004E00007FEFDCF1EBC0DB407FEFDCF8EBD0DB4C3
:1004F00007FEFDCF2F9A8AEF90E00197F1F72F9832
:1005000008958EBD0DB407FEFDCF1EBC0DB407FED1
:10051000FDCF1EBC0DB407FEFDCF2F9A8AEF90E0F1
:100520000197F1F72F9808958EBD0DB407FEFDCF0A
:100530006EBD0DB407FEFDCF4EBD0DB407FEFDCF61
:100540002F9A2F98089580E060E040E0EDCF80E0A2
:1005500060E040E0E9CF1F93DF93CF930F92CDB7D8
:10056000DEB79EB1182F10951770987F192B6983ED
:10057000EEDF1EB96981677040E850E002C0559512
:1005800047956A95E2F780E060E0CEDF0F90CF916B
:10059000DF911F9108951F93DF93CF930F92CDB7F3
:1005A000DEB79EB1182F10951770987F192B6983AD
:1005B000CEDF1EB96981862F877060E870E002C0C7
:1005C000759567958A95E2F780E040E0ADDF0F9082
:1005D000CF91DF911F9108951F93DF93CF930F92D7
:1005E000CDB7DEB79EB1182F10951770987F192BD5
:1005F0006983ADDF1EB96981677080E890E002C051
:10060000959587956A95E2F760E040E08DDF0F9061
:10061000CF91DF911F910895AA1BBB1B51E107C029
:10062000AA1FBB1FA617B70710F0A61BB70B881F82
:10063000991F5A95A9F780959095BC01CD01089511
:04064000F894FFCF5C
:1006440057756E646572426F61726420696E697475
:1006540069616C697A696E672E2E2E0D0A00095342
:10066400657474696E6720414443207072657363D6
:10067400616C657220616E642064697361626C6987
:100684006E6720667265652072756E6E696E67208E
:100694006D6F64652E2E2E0D0A0009456E61626C25
:1006A400696E67204144432E2E2E0D0A00095365BE
:1006B4007474696E6720414443207265666572658F
:1006C4006E636520746F205663632E2E2E0D0A0010
:1006D40009436F6E6669677572696E6720494F2EAC
:1006E4002E2E0D0A000953657474696E67205350E9
:1006F400490D0A000948656C6C6F200D00090D0A4C
:10070400583A2000090D0A5928746F70293A2000BC
:10071400090D0A5928626F74746F6D293A2000001C
:00000001FF
